{
  "_format": "hh-sol-artifact-1",
  "contractName": "OneTimeSaleToken",
  "sourceName": "contracts/OneTimeSaleToken.sol",
  "abi": [
    {
      "inputs": [
        {
          "internalType": "string",
          "name": "name",
          "type": "string"
        },
        {
          "internalType": "string",
          "name": "symbol",
          "type": "string"
        },
        {
          "internalType": "uint256",
          "name": "initialSupply",
          "type": "uint256"
        },
        {
          "internalType": "uint256",
          "name": "_salePrice",
          "type": "uint256"
        },
        {
          "internalType": "string",
          "name": "_metaData",
          "type": "string"
        },
        {
          "internalType": "address",
          "name": "_payoutAddress",
          "type": "address"
        }
      ],
      "stateMutability": "nonpayable",
      "type": "constructor"
    },
    {
      "inputs": [
        {
          "internalType": "address",
          "name": "spender",
          "type": "address"
        },
        {
          "internalType": "uint256",
          "name": "allowance",
          "type": "uint256"
        },
        {
          "internalType": "uint256",
          "name": "needed",
          "type": "uint256"
        }
      ],
      "name": "ERC20InsufficientAllowance",
      "type": "error"
    },
    {
      "inputs": [
        {
          "internalType": "address",
          "name": "sender",
          "type": "address"
        },
        {
          "internalType": "uint256",
          "name": "balance",
          "type": "uint256"
        },
        {
          "internalType": "uint256",
          "name": "needed",
          "type": "uint256"
        }
      ],
      "name": "ERC20InsufficientBalance",
      "type": "error"
    },
    {
      "inputs": [
        {
          "internalType": "address",
          "name": "approver",
          "type": "address"
        }
      ],
      "name": "ERC20InvalidApprover",
      "type": "error"
    },
    {
      "inputs": [
        {
          "internalType": "address",
          "name": "receiver",
          "type": "address"
        }
      ],
      "name": "ERC20InvalidReceiver",
      "type": "error"
    },
    {
      "inputs": [
        {
          "internalType": "address",
          "name": "sender",
          "type": "address"
        }
      ],
      "name": "ERC20InvalidSender",
      "type": "error"
    },
    {
      "inputs": [
        {
          "internalType": "address",
          "name": "spender",
          "type": "address"
        }
      ],
      "name": "ERC20InvalidSpender",
      "type": "error"
    },
    {
      "inputs": [
        {
          "internalType": "address",
          "name": "owner",
          "type": "address"
        }
      ],
      "name": "OwnableInvalidOwner",
      "type": "error"
    },
    {
      "inputs": [
        {
          "internalType": "address",
          "name": "account",
          "type": "address"
        }
      ],
      "name": "OwnableUnauthorizedAccount",
      "type": "error"
    },
    {
      "anonymous": false,
      "inputs": [
        {
          "indexed": true,
          "internalType": "address",
          "name": "owner",
          "type": "address"
        },
        {
          "indexed": true,
          "internalType": "address",
          "name": "spender",
          "type": "address"
        },
        {
          "indexed": false,
          "internalType": "uint256",
          "name": "value",
          "type": "uint256"
        }
      ],
      "name": "Approval",
      "type": "event"
    },
    {
      "anonymous": false,
      "inputs": [
        {
          "indexed": true,
          "internalType": "address",
          "name": "previousOwner",
          "type": "address"
        },
        {
          "indexed": true,
          "internalType": "address",
          "name": "newOwner",
          "type": "address"
        }
      ],
      "name": "OwnershipTransferred",
      "type": "event"
    },
    {
      "anonymous": false,
      "inputs": [
        {
          "indexed": true,
          "internalType": "address",
          "name": "burner",
          "type": "address"
        },
        {
          "indexed": false,
          "internalType": "uint256",
          "name": "amount",
          "type": "uint256"
        },
        {
          "indexed": false,
          "internalType": "string",
          "name": "metaData",
          "type": "string"
        }
      ],
      "name": "TokensBurned",
      "type": "event"
    },
    {
      "anonymous": false,
      "inputs": [
        {
          "indexed": true,
          "internalType": "address",
          "name": "buyer",
          "type": "address"
        },
        {
          "indexed": false,
          "internalType": "uint256",
          "name": "amount",
          "type": "uint256"
        }
      ],
      "name": "TokensPurchased",
      "type": "event"
    },
    {
      "anonymous": false,
      "inputs": [
        {
          "indexed": true,
          "internalType": "address",
          "name": "from",
          "type": "address"
        },
        {
          "indexed": true,
          "internalType": "address",
          "name": "to",
          "type": "address"
        },
        {
          "indexed": false,
          "internalType": "uint256",
          "name": "value",
          "type": "uint256"
        }
      ],
      "name": "Transfer",
      "type": "event"
    },
    {
      "inputs": [
        {
          "internalType": "address",
          "name": "owner",
          "type": "address"
        },
        {
          "internalType": "address",
          "name": "spender",
          "type": "address"
        }
      ],
      "name": "allowance",
      "outputs": [
        {
          "internalType": "uint256",
          "name": "",
          "type": "uint256"
        }
      ],
      "stateMutability": "view",
      "type": "function"
    },
    {
      "inputs": [
        {
          "internalType": "address",
          "name": "spender",
          "type": "address"
        },
        {
          "internalType": "uint256",
          "name": "value",
          "type": "uint256"
        }
      ],
      "name": "approve",
      "outputs": [
        {
          "internalType": "bool",
          "name": "",
          "type": "bool"
        }
      ],
      "stateMutability": "nonpayable",
      "type": "function"
    },
    {
      "inputs": [
        {
          "internalType": "address",
          "name": "account",
          "type": "address"
        }
      ],
      "name": "balanceOf",
      "outputs": [
        {
          "internalType": "uint256",
          "name": "",
          "type": "uint256"
        }
      ],
      "stateMutability": "view",
      "type": "function"
    },
    {
      "inputs": [
        {
          "internalType": "uint256",
          "name": "amount",
          "type": "uint256"
        }
      ],
      "name": "burnToken",
      "outputs": [],
      "stateMutability": "nonpayable",
      "type": "function"
    },
    {
      "inputs": [
        {
          "internalType": "uint256",
          "name": "amount",
          "type": "uint256"
        }
      ],
      "name": "buyToken",
      "outputs": [],
      "stateMutability": "payable",
      "type": "function"
    },
    {
      "inputs": [],
      "name": "decimals",
      "outputs": [
        {
          "internalType": "uint8",
          "name": "",
          "type": "uint8"
        }
      ],
      "stateMutability": "view",
      "type": "function"
    },
    {
      "inputs": [
        {
          "internalType": "address",
          "name": "account",
          "type": "address"
        }
      ],
      "name": "getPurchasedTokens",
      "outputs": [
        {
          "internalType": "uint256",
          "name": "",
          "type": "uint256"
        }
      ],
      "stateMutability": "view",
      "type": "function"
    },
    {
      "inputs": [],
      "name": "getUnsoldTokens",
      "outputs": [
        {
          "internalType": "uint256",
          "name": "",
          "type": "uint256"
        }
      ],
      "stateMutability": "view",
      "type": "function"
    },
    {
      "inputs": [],
      "name": "metaData",
      "outputs": [
        {
          "internalType": "string",
          "name": "",
          "type": "string"
        }
      ],
      "stateMutability": "view",
      "type": "function"
    },
    {
      "inputs": [
        {
          "internalType": "uint256",
          "name": "amount",
          "type": "uint256"
        }
      ],
      "name": "mint",
      "outputs": [],
      "stateMutability": "nonpayable",
      "type": "function"
    },
    {
      "inputs": [],
      "name": "name",
      "outputs": [
        {
          "internalType": "string",
          "name": "",
          "type": "string"
        }
      ],
      "stateMutability": "view",
      "type": "function"
    },
    {
      "inputs": [],
      "name": "owner",
      "outputs": [
        {
          "internalType": "address",
          "name": "",
          "type": "address"
        }
      ],
      "stateMutability": "view",
      "type": "function"
    },
    {
      "inputs": [],
      "name": "payoutAddress",
      "outputs": [
        {
          "internalType": "address",
          "name": "",
          "type": "address"
        }
      ],
      "stateMutability": "view",
      "type": "function"
    },
    {
      "inputs": [
        {
          "internalType": "address",
          "name": "",
          "type": "address"
        }
      ],
      "name": "purchasedTokens",
      "outputs": [
        {
          "internalType": "uint256",
          "name": "",
          "type": "uint256"
        }
      ],
      "stateMutability": "view",
      "type": "function"
    },
    {
      "inputs": [],
      "name": "renounceOwnership",
      "outputs": [],
      "stateMutability": "nonpayable",
      "type": "function"
    },
    {
      "inputs": [],
      "name": "salePrice",
      "outputs": [
        {
          "internalType": "uint256",
          "name": "",
          "type": "uint256"
        }
      ],
      "stateMutability": "view",
      "type": "function"
    },
    {
      "inputs": [],
      "name": "symbol",
      "outputs": [
        {
          "internalType": "string",
          "name": "",
          "type": "string"
        }
      ],
      "stateMutability": "view",
      "type": "function"
    },
    {
      "inputs": [],
      "name": "totalSupply",
      "outputs": [
        {
          "internalType": "uint256",
          "name": "",
          "type": "uint256"
        }
      ],
      "stateMutability": "view",
      "type": "function"
    },
    {
      "inputs": [
        {
          "internalType": "address",
          "name": "to",
          "type": "address"
        },
        {
          "internalType": "uint256",
          "name": "value",
          "type": "uint256"
        }
      ],
      "name": "transfer",
      "outputs": [
        {
          "internalType": "bool",
          "name": "",
          "type": "bool"
        }
      ],
      "stateMutability": "nonpayable",
      "type": "function"
    },
    {
      "inputs": [
        {
          "internalType": "address",
          "name": "from",
          "type": "address"
        },
        {
          "internalType": "address",
          "name": "to",
          "type": "address"
        },
        {
          "internalType": "uint256",
          "name": "value",
          "type": "uint256"
        }
      ],
      "name": "transferFrom",
      "outputs": [
        {
          "internalType": "bool",
          "name": "",
          "type": "bool"
        }
      ],
      "stateMutability": "nonpayable",
      "type": "function"
    },
    {
      "inputs": [
        {
          "internalType": "address",
          "name": "newOwner",
          "type": "address"
        }
      ],
      "name": "transferOwnership",
      "outputs": [],
      "stateMutability": "nonpayable",
      "type": "function"
    }
  ],
  "bytecode": "0x60806040523480156200001157600080fd5b50604051620028f4380380620028f4833981810160405281019062000037919062000715565b33868681600390816200004b919062000a4f565b5080600490816200005d919062000a4f565b505050600073ffffffffffffffffffffffffffffffffffffffff168173ffffffffffffffffffffffffffffffffffffffff1603620000d55760006040517f1e4fbdf7000000000000000000000000000000000000000000000000000000008152600401620000cc919062000b47565b60405180910390fd5b620000e6816200015f60201b60201c565b50826006819055508160079081620000ff919062000a4f565b5080600860006101000a81548173ffffffffffffffffffffffffffffffffffffffff021916908373ffffffffffffffffffffffffffffffffffffffff1602179055506200015330856200022560201b60201c565b50505050505062000c39565b6000600560009054906101000a900473ffffffffffffffffffffffffffffffffffffffff16905081600560006101000a81548173ffffffffffffffffffffffffffffffffffffffff021916908373ffffffffffffffffffffffffffffffffffffffff1602179055508173ffffffffffffffffffffffffffffffffffffffff168173ffffffffffffffffffffffffffffffffffffffff167f8be0079c531659141344cd1fd0a4f28419497f9722a3daafe3b4186f6b6457e060405160405180910390a35050565b600073ffffffffffffffffffffffffffffffffffffffff168273ffffffffffffffffffffffffffffffffffffffff16036200029a5760006040517fec442f0500000000000000000000000000000000000000000000000000000000815260040162000291919062000b47565b60405180910390fd5b620002ae60008383620002b260201b60201c565b5050565b600073ffffffffffffffffffffffffffffffffffffffff168373ffffffffffffffffffffffffffffffffffffffff160362000308578060026000828254620002fb919062000b93565b92505081905550620003de565b60008060008573ffffffffffffffffffffffffffffffffffffffff1673ffffffffffffffffffffffffffffffffffffffff1681526020019081526020016000205490508181101562000397578381836040517fe450d38c0000000000000000000000000000000000000000000000000000000081526004016200038e9392919062000bdf565b60405180910390fd5b8181036000808673ffffffffffffffffffffffffffffffffffffffff1673ffffffffffffffffffffffffffffffffffffffff16815260200190815260200160002081905550505b600073ffffffffffffffffffffffffffffffffffffffff168273ffffffffffffffffffffffffffffffffffffffff160362000429578060026000828254039250508190555062000476565b806000808473ffffffffffffffffffffffffffffffffffffffff1673ffffffffffffffffffffffffffffffffffffffff168152602001908152602001600020600082825401925050819055505b8173ffffffffffffffffffffffffffffffffffffffff168373ffffffffffffffffffffffffffffffffffffffff167fddf252ad1be2c89b69c2b068fc378daa952ba7f163c4a11628f55a4df523b3ef83604051620004d5919062000c1c565b60405180910390a3505050565b6000604051905090565b600080fd5b600080fd5b600080fd5b600080fd5b6000601f19601f8301169050919050565b7f4e487b7100000000000000000000000000000000000000000000000000000000600052604160045260246000fd5b6200054b8262000500565b810181811067ffffffffffffffff821117156200056d576200056c62000511565b5b80604052505050565b600062000582620004e2565b905062000590828262000540565b919050565b600067ffffffffffffffff821115620005b357620005b262000511565b5b620005be8262000500565b9050602081019050919050565b60005b83811015620005eb578082015181840152602081019050620005ce565b60008484015250505050565b60006200060e620006088462000595565b62000576565b9050828152602081018484840111156200062d576200062c620004fb565b5b6200063a848285620005cb565b509392505050565b600082601f8301126200065a5762000659620004f6565b5b81516200066c848260208601620005f7565b91505092915050565b6000819050919050565b6200068a8162000675565b81146200069657600080fd5b50565b600081519050620006aa816200067f565b92915050565b600073ffffffffffffffffffffffffffffffffffffffff82169050919050565b6000620006dd82620006b0565b9050919050565b620006ef81620006d0565b8114620006fb57600080fd5b50565b6000815190506200070f81620006e4565b92915050565b60008060008060008060c08789031215620007355762000734620004ec565b5b600087015167ffffffffffffffff811115620007565762000755620004f1565b5b6200076489828a0162000642565b965050602087015167ffffffffffffffff811115620007885762000787620004f1565b5b6200079689828a0162000642565b9550506040620007a989828a0162000699565b9450506060620007bc89828a0162000699565b935050608087015167ffffffffffffffff811115620007e057620007df620004f1565b5b620007ee89828a0162000642565b92505060a06200080189828a01620006fe565b9150509295509295509295565b600081519050919050565b7f4e487b7100000000000000000000000000000000000000000000000000000000600052602260045260246000fd5b600060028204905060018216806200086157607f821691505b60208210810362000877576200087662000819565b5b50919050565b60008190508160005260206000209050919050565b60006020601f8301049050919050565b600082821b905092915050565b600060088302620008e17fffffffffffffffffffffffffffffffffffffffffffffffffffffffffffffffff82620008a2565b620008ed8683620008a2565b95508019841693508086168417925050509392505050565b6000819050919050565b6000620009306200092a620009248462000675565b62000905565b62000675565b9050919050565b6000819050919050565b6200094c836200090f565b620009646200095b8262000937565b848454620008af565b825550505050565b600090565b6200097b6200096c565b6200098881848462000941565b505050565b5b81811015620009b057620009a460008262000971565b6001810190506200098e565b5050565b601f821115620009ff57620009c9816200087d565b620009d48462000892565b81016020851015620009e4578190505b620009fc620009f38562000892565b8301826200098d565b50505b505050565b600082821c905092915050565b600062000a246000198460080262000a04565b1980831691505092915050565b600062000a3f838362000a11565b9150826002028217905092915050565b62000a5a826200080e565b67ffffffffffffffff81111562000a765762000a7562000511565b5b62000a82825462000848565b62000a8f828285620009b4565b600060209050601f83116001811462000ac7576000841562000ab2578287015190505b62000abe858262000a31565b86555062000b2e565b601f19841662000ad7866200087d565b60005b8281101562000b015784890151825560018201915060208501945060208101905062000ada565b8683101562000b21578489015162000b1d601f89168262000a11565b8355505b6001600288020188555050505b505050505050565b62000b4181620006d0565b82525050565b600060208201905062000b5e600083018462000b36565b92915050565b7f4e487b7100000000000000000000000000000000000000000000000000000000600052601160045260246000fd5b600062000ba08262000675565b915062000bad8362000675565b925082820190508082111562000bc85762000bc762000b64565b5b92915050565b62000bd98162000675565b82525050565b600060608201905062000bf6600083018662000b36565b62000c05602083018562000bce565b62000c14604083018462000bce565b949350505050565b600060208201905062000c33600083018462000bce565b92915050565b611cab8062000c496000396000f3fe60806040526004361061012a5760003560e01c806370a08231116100ab578063a0712d681161006f578063a0712d68146103e9578063a9059cbb14610412578063baf2a4eb1461044f578063dd62ed3e1461047a578063f2fde38b146104b7578063f51f96dd146104e05761012a565b806370a0823114610316578063715018a6146103535780637b47ec1a1461036a5780638da5cb5b1461039357806395d89b41146103be5761012a565b8063313ce567116100f2578063313ce5671461021b5780634bae6f3f1461024657806354ed08c8146102835780635b8d02d7146102c05780636d00e501146102eb5761012a565b806306fdde031461012f578063095ea7b31461015a57806318160ddd1461019757806323b872dd146101c25780632d296bf1146101ff575b600080fd5b34801561013b57600080fd5b5061014461050b565b60405161015191906115bd565b60405180910390f35b34801561016657600080fd5b50610181600480360381019061017c9190611678565b61059d565b60405161018e91906116d3565b60405180910390f35b3480156101a357600080fd5b506101ac6105c0565b6040516101b991906116fd565b60405180910390f35b3480156101ce57600080fd5b506101e960048036038101906101e49190611718565b6105ca565b6040516101f691906116d3565b60405180910390f35b6102196004803603810190610214919061176b565b6105f9565b005b34801561022757600080fd5b506102306107f1565b60405161023d91906117b4565b60405180910390f35b34801561025257600080fd5b5061026d600480360381019061026891906117cf565b6107fa565b60405161027a91906116fd565b60405180910390f35b34801561028f57600080fd5b506102aa60048036038101906102a591906117cf565b610812565b6040516102b791906116fd565b60405180910390f35b3480156102cc57600080fd5b506102d561085b565b6040516102e2919061180b565b60405180910390f35b3480156102f757600080fd5b50610300610881565b60405161030d91906116fd565b60405180910390f35b34801561032257600080fd5b5061033d600480360381019061033891906117cf565b610891565b60405161034a91906116fd565b60405180910390f35b34801561035f57600080fd5b506103686108d9565b005b34801561037657600080fd5b50610391600480360381019061038c919061176b565b6108ed565b005b34801561039f57600080fd5b506103a8610a66565b6040516103b5919061180b565b60405180910390f35b3480156103ca57600080fd5b506103d3610a90565b6040516103e091906115bd565b60405180910390f35b3480156103f557600080fd5b50610410600480360381019061040b919061176b565b610b22565b005b34801561041e57600080fd5b5061043960048036038101906104349190611678565b610b7a565b60405161044691906116d3565b60405180910390f35b34801561045b57600080fd5b50610464610b9d565b60405161047191906115bd565b60405180910390f35b34801561048657600080fd5b506104a1600480360381019061049c9190611826565b610c2b565b6040516104ae91906116fd565b60405180910390f35b3480156104c357600080fd5b506104de60048036038101906104d991906117cf565b610cb2565b005b3480156104ec57600080fd5b506104f5610d38565b60405161050291906116fd565b60405180910390f35b60606003805461051a90611895565b80601f016020809104026020016040519081016040528092919081815260200182805461054690611895565b80156105935780601f1061056857610100808354040283529160200191610593565b820191906000526020600020905b81548152906001019060200180831161057657829003601f168201915b5050505050905090565b6000806105a8610d3e565b90506105b5818585610d46565b600191505092915050565b6000600254905090565b6000806105d5610d3e565b90506105e2858285610d58565b6105ed858585610dec565b60019150509392505050565b6000811161063c576040517f08c379a000000000000000000000000000000000000000000000000000000000815260040161063390611912565b60405180910390fd5b8060065461064a9190611961565b341461068b576040517f08c379a0000000000000000000000000000000000000000000000000000000008152600401610682906119ef565b60405180910390fd5b8061069530610891565b10156106d6576040517f08c379a00000000000000000000000000000000000000000000000000000000081526004016106cd90611a81565b60405180910390fd5b6106e1303383610dec565b80600960003373ffffffffffffffffffffffffffffffffffffffff1673ffffffffffffffffffffffffffffffffffffffff16815260200190815260200160002060008282546107309190611aa1565b92505081905550600860009054906101000a900473ffffffffffffffffffffffffffffffffffffffff1673ffffffffffffffffffffffffffffffffffffffff166108fc349081150290604051600060405180830381858888f1935050505015801561079f573d6000803e3d6000fd5b503373ffffffffffffffffffffffffffffffffffffffff167f8f28852646c20cc973d3a8218f7eefed58c25c909f78f0265af4818c3d4dc271826040516107e691906116fd565b60405180910390a250565b60006012905090565b60096020528060005260406000206000915090505481565b6000600960008373ffffffffffffffffffffffffffffffffffffffff1673ffffffffffffffffffffffffffffffffffffffff168152602001908152602001600020549050919050565b600860009054906101000a900473ffffffffffffffffffffffffffffffffffffffff1681565b600061088c30610891565b905090565b60008060008373ffffffffffffffffffffffffffffffffffffffff1673ffffffffffffffffffffffffffffffffffffffff168152602001908152602001600020549050919050565b6108e1610ee0565b6108eb6000610f67565b565b60008111610930576040517f08c379a000000000000000000000000000000000000000000000000000000000815260040161092790611912565b60405180910390fd5b80600960003373ffffffffffffffffffffffffffffffffffffffff1673ffffffffffffffffffffffffffffffffffffffff1681526020019081526020016000205410156109b2576040517f08c379a00000000000000000000000000000000000000000000000000000000081526004016109a990611b21565b60405180910390fd5b6109bc338261102d565b80600960003373ffffffffffffffffffffffffffffffffffffffff1673ffffffffffffffffffffffffffffffffffffffff1681526020019081526020016000206000828254610a0b9190611b41565b925050819055503373ffffffffffffffffffffffffffffffffffffffff167ffad31924d655455395c87544c8aa1ffdb5a7505a22a3c2e03f28003b6556a75f826007604051610a5b929190611c0e565b60405180910390a250565b6000600560009054906101000a900473ffffffffffffffffffffffffffffffffffffffff16905090565b606060048054610a9f90611895565b80601f0160208091040260200160405190810160405280929190818152602001828054610acb90611895565b8015610b185780601f10610aed57610100808354040283529160200191610b18565b820191906000526020600020905b815481529060010190602001808311610afb57829003601f168201915b5050505050905090565b610b2a610ee0565b60008111610b6d576040517f08c379a0000000000000000000000000000000000000000000000000000000008152600401610b6490611912565b60405180910390fd5b610b7730826110af565b50565b600080610b85610d3e565b9050610b92818585610dec565b600191505092915050565b60078054610baa90611895565b80601f0160208091040260200160405190810160405280929190818152602001828054610bd690611895565b8015610c235780601f10610bf857610100808354040283529160200191610c23565b820191906000526020600020905b815481529060010190602001808311610c0657829003601f168201915b505050505081565b6000600160008473ffffffffffffffffffffffffffffffffffffffff1673ffffffffffffffffffffffffffffffffffffffff16815260200190815260200160002060008373ffffffffffffffffffffffffffffffffffffffff1673ffffffffffffffffffffffffffffffffffffffff16815260200190815260200160002054905092915050565b610cba610ee0565b600073ffffffffffffffffffffffffffffffffffffffff168173ffffffffffffffffffffffffffffffffffffffff1603610d2c5760006040517f1e4fbdf7000000000000000000000000000000000000000000000000000000008152600401610d23919061180b565b60405180910390fd5b610d3581610f67565b50565b60065481565b600033905090565b610d538383836001611131565b505050565b6000610d648484610c2b565b90507fffffffffffffffffffffffffffffffffffffffffffffffffffffffffffffffff8114610de65781811015610dd6578281836040517ffb8f41b2000000000000000000000000000000000000000000000000000000008152600401610dcd93929190611c3e565b60405180910390fd5b610de584848484036000611131565b5b50505050565b600073ffffffffffffffffffffffffffffffffffffffff168373ffffffffffffffffffffffffffffffffffffffff1603610e5e5760006040517f96c6fd1e000000000000000000000000000000000000000000000000000000008152600401610e55919061180b565b60405180910390fd5b600073ffffffffffffffffffffffffffffffffffffffff168273ffffffffffffffffffffffffffffffffffffffff1603610ed05760006040517fec442f05000000000000000000000000000000000000000000000000000000008152600401610ec7919061180b565b60405180910390fd5b610edb838383611308565b505050565b610ee8610d3e565b73ffffffffffffffffffffffffffffffffffffffff16610f06610a66565b73ffffffffffffffffffffffffffffffffffffffff1614610f6557610f29610d3e565b6040517f118cdaa7000000000000000000000000000000000000000000000000000000008152600401610f5c919061180b565b60405180910390fd5b565b6000600560009054906101000a900473ffffffffffffffffffffffffffffffffffffffff16905081600560006101000a81548173ffffffffffffffffffffffffffffffffffffffff021916908373ffffffffffffffffffffffffffffffffffffffff1602179055508173ffffffffffffffffffffffffffffffffffffffff168173ffffffffffffffffffffffffffffffffffffffff167f8be0079c531659141344cd1fd0a4f28419497f9722a3daafe3b4186f6b6457e060405160405180910390a35050565b600073ffffffffffffffffffffffffffffffffffffffff168273ffffffffffffffffffffffffffffffffffffffff160361109f5760006040517f96c6fd1e000000000000000000000000000000000000000000000000000000008152600401611096919061180b565b60405180910390fd5b6110ab82600083611308565b5050565b600073ffffffffffffffffffffffffffffffffffffffff168273ffffffffffffffffffffffffffffffffffffffff16036111215760006040517fec442f05000000000000000000000000000000000000000000000000000000008152600401611118919061180b565b60405180910390fd5b61112d60008383611308565b5050565b600073ffffffffffffffffffffffffffffffffffffffff168473ffffffffffffffffffffffffffffffffffffffff16036111a35760006040517fe602df0500000000000000000000000000000000000000000000000000000000815260040161119a919061180b565b60405180910390fd5b600073ffffffffffffffffffffffffffffffffffffffff168373ffffffffffffffffffffffffffffffffffffffff16036112155760006040517f94280d6200000000000000000000000000000000000000000000000000000000815260040161120c919061180b565b60405180910390fd5b81600160008673ffffffffffffffffffffffffffffffffffffffff1673ffffffffffffffffffffffffffffffffffffffff16815260200190815260200160002060008573ffffffffffffffffffffffffffffffffffffffff1673ffffffffffffffffffffffffffffffffffffffff168152602001908152602001600020819055508015611302578273ffffffffffffffffffffffffffffffffffffffff168473ffffffffffffffffffffffffffffffffffffffff167f8c5be1e5ebec7d5bd14f71427d1e84f3dd0314c0f7b2291e5b200ac8c7c3b925846040516112f991906116fd565b60405180910390a35b50505050565b600073ffffffffffffffffffffffffffffffffffffffff168373ffffffffffffffffffffffffffffffffffffffff160361135a57806002600082825461134e9190611aa1565b9250508190555061142d565b60008060008573ffffffffffffffffffffffffffffffffffffffff1673ffffffffffffffffffffffffffffffffffffffff168152602001908152602001600020549050818110156113e6578381836040517fe450d38c0000000000000000000000000000000000000000000000000000000081526004016113dd93929190611c3e565b60405180910390fd5b8181036000808673ffffffffffffffffffffffffffffffffffffffff1673ffffffffffffffffffffffffffffffffffffffff16815260200190815260200160002081905550505b600073ffffffffffffffffffffffffffffffffffffffff168273ffffffffffffffffffffffffffffffffffffffff160361147657806002600082825403925050819055506114c3565b806000808473ffffffffffffffffffffffffffffffffffffffff1673ffffffffffffffffffffffffffffffffffffffff168152602001908152602001600020600082825401925050819055505b8173ffffffffffffffffffffffffffffffffffffffff168373ffffffffffffffffffffffffffffffffffffffff167fddf252ad1be2c89b69c2b068fc378daa952ba7f163c4a11628f55a4df523b3ef8360405161152091906116fd565b60405180910390a3505050565b600081519050919050565b600082825260208201905092915050565b60005b8381101561156757808201518184015260208101905061154c565b60008484015250505050565b6000601f19601f8301169050919050565b600061158f8261152d565b6115998185611538565b93506115a9818560208601611549565b6115b281611573565b840191505092915050565b600060208201905081810360008301526115d78184611584565b905092915050565b600080fd5b600073ffffffffffffffffffffffffffffffffffffffff82169050919050565b600061160f826115e4565b9050919050565b61161f81611604565b811461162a57600080fd5b50565b60008135905061163c81611616565b92915050565b6000819050919050565b61165581611642565b811461166057600080fd5b50565b6000813590506116728161164c565b92915050565b6000806040838503121561168f5761168e6115df565b5b600061169d8582860161162d565b92505060206116ae85828601611663565b9150509250929050565b60008115159050919050565b6116cd816116b8565b82525050565b60006020820190506116e860008301846116c4565b92915050565b6116f781611642565b82525050565b600060208201905061171260008301846116ee565b92915050565b600080600060608486031215611731576117306115df565b5b600061173f8682870161162d565b93505060206117508682870161162d565b925050604061176186828701611663565b9150509250925092565b600060208284031215611781576117806115df565b5b600061178f84828501611663565b91505092915050565b600060ff82169050919050565b6117ae81611798565b82525050565b60006020820190506117c960008301846117a5565b92915050565b6000602082840312156117e5576117e46115df565b5b60006117f38482850161162d565b91505092915050565b61180581611604565b82525050565b600060208201905061182060008301846117fc565b92915050565b6000806040838503121561183d5761183c6115df565b5b600061184b8582860161162d565b925050602061185c8582860161162d565b9150509250929050565b7f4e487b7100000000000000000000000000000000000000000000000000000000600052602260045260246000fd5b600060028204905060018216806118ad57607f821691505b6020821081036118c0576118bf611866565b5b50919050565b7f416d6f756e74206d7573742062652067726561746572207468616e2030000000600082015250565b60006118fc601d83611538565b9150611907826118c6565b602082019050919050565b6000602082019050818103600083015261192b816118ef565b9050919050565b7f4e487b7100000000000000000000000000000000000000000000000000000000600052601160045260246000fd5b600061196c82611642565b915061197783611642565b925082820261198581611642565b9150828204841483151761199c5761199b611932565b5b5092915050565b7f496e636f72726563742045746865722076616c75652073656e74000000000000600082015250565b60006119d9601a83611538565b91506119e4826119a3565b602082019050919050565b60006020820190508181036000830152611a08816119cc565b9050919050565b7f4e6f7420656e6f75676820746f6b656e7320617661696c61626c6520666f722060008201527f73616c6500000000000000000000000000000000000000000000000000000000602082015250565b6000611a6b602483611538565b9150611a7682611a0f565b604082019050919050565b60006020820190508181036000830152611a9a81611a5e565b9050919050565b6000611aac82611642565b9150611ab783611642565b9250828201905080821115611acf57611ace611932565b5b92915050565b7f496e73756666696369656e7420746f6b656e7320746f206275726e0000000000600082015250565b6000611b0b601b83611538565b9150611b1682611ad5565b602082019050919050565b60006020820190508181036000830152611b3a81611afe565b9050919050565b6000611b4c82611642565b9150611b5783611642565b9250828203905081811115611b6f57611b6e611932565b5b92915050565b60008190508160005260206000209050919050565b60008154611b9781611895565b611ba18186611538565b94506001821660008114611bbc5760018114611bd257611c05565b60ff198316865281151560200286019350611c05565b611bdb85611b75565b60005b83811015611bfd57815481890152600182019150602081019050611bde565b808801955050505b50505092915050565b6000604082019050611c2360008301856116ee565b8181036020830152611c358184611b8a565b90509392505050565b6000606082019050611c5360008301866117fc565b611c6060208301856116ee565b611c6d60408301846116ee565b94935050505056fea2646970667358221220905d31bb725294be19f1638356748b23458178a4c65df4e2f55380e6ffe9c84364736f6c63430008180033",
  "linkReferences": {},
  "deployedLinkReferences": {}
}